{
  "_format": "hh-sol-artifact-1",
  "contractName": "HandshakeTokenTransfer",
  "sourceName": "contracts/handshake.sol",
  "abi": [
    {
      "inputs": [],
      "stateMutability": "nonpayable",
      "type": "constructor"
    },
    {
      "inputs": [],
      "name": "ECDSAInvalidSignature",
      "type": "error"
    },
    {
      "inputs": [
        {
          "internalType": "uint256",
          "name": "length",
          "type": "uint256"
        }
      ],
      "name": "ECDSAInvalidSignatureLength",
      "type": "error"
    },
    {
      "inputs": [
        {
          "internalType": "bytes32",
          "name": "s",
          "type": "bytes32"
        }
      ],
      "name": "ECDSAInvalidSignatureS",
      "type": "error"
    },
    {
      "inputs": [],
      "name": "InvalidShortString",
      "type": "error"
    },
    {
      "inputs": [
        {
          "internalType": "string",
          "name": "str",
          "type": "string"
        }
      ],
      "name": "StringTooLong",
      "type": "error"
    },
    {
      "anonymous": false,
      "inputs": [],
      "name": "EIP712DomainChanged",
      "type": "event"
    },
    {
      "inputs": [],
      "name": "NFT_RECEIVER_TYPEHASH",
      "outputs": [
        {
          "internalType": "bytes32",
          "name": "",
          "type": "bytes32"
        }
      ],
      "stateMutability": "view",
      "type": "function"
    },
    {
      "inputs": [],
      "name": "NFT_SENDER_TYPEHASH",
      "outputs": [
        {
          "internalType": "bytes32",
          "name": "",
          "type": "bytes32"
        }
      ],
      "stateMutability": "view",
      "type": "function"
    },
    {
      "inputs": [],
      "name": "RECEIVER_TYPEHASH",
      "outputs": [
        {
          "internalType": "bytes32",
          "name": "",
          "type": "bytes32"
        }
      ],
      "stateMutability": "view",
      "type": "function"
    },
    {
      "inputs": [],
      "name": "SENDER_TYPEHASH",
      "outputs": [
        {
          "internalType": "bytes32",
          "name": "",
          "type": "bytes32"
        }
      ],
      "stateMutability": "view",
      "type": "function"
    },
    {
      "inputs": [
        {
          "internalType": "address",
          "name": "authorizer",
          "type": "address"
        },
        {
          "internalType": "bytes32",
          "name": "nonce",
          "type": "bytes32"
        }
      ],
      "name": "authorizationState",
      "outputs": [
        {
          "internalType": "bool",
          "name": "",
          "type": "bool"
        }
      ],
      "stateMutability": "view",
      "type": "function"
    },
    {
      "inputs": [],
      "name": "eip712Domain",
      "outputs": [
        {
          "internalType": "bytes1",
          "name": "fields",
          "type": "bytes1"
        },
        {
          "internalType": "string",
          "name": "name",
          "type": "string"
        },
        {
          "internalType": "string",
          "name": "version",
          "type": "string"
        },
        {
          "internalType": "uint256",
          "name": "chainId",
          "type": "uint256"
        },
        {
          "internalType": "address",
          "name": "verifyingContract",
          "type": "address"
        },
        {
          "internalType": "bytes32",
          "name": "salt",
          "type": "bytes32"
        },
        {
          "internalType": "uint256[]",
          "name": "extensions",
          "type": "uint256[]"
        }
      ],
      "stateMutability": "view",
      "type": "function"
    },
    {
      "inputs": [
        {
          "internalType": "bytes",
          "name": "senderSign",
          "type": "bytes"
        },
        {
          "internalType": "bytes",
          "name": "receiverSign",
          "type": "bytes"
        },
        {
          "internalType": "uint256",
          "name": "deadline",
          "type": "uint256"
        },
        {
          "components": [
            {
              "internalType": "address",
              "name": "sender",
              "type": "address"
            },
            {
              "internalType": "address",
              "name": "receiver",
              "type": "address"
            },
            {
              "internalType": "address",
              "name": "tokenAddress",
              "type": "address"
            },
            {
              "internalType": "uint256",
              "name": "amount",
              "type": "uint256"
            },
            {
              "internalType": "uint256",
              "name": "deadline",
              "type": "uint256"
            },
            {
              "internalType": "bytes32",
              "name": "nonce",
              "type": "bytes32"
            }
          ],
          "internalType": "struct HandshakeTokenTransfer.TokenTransfer",
          "name": "_transaction",
          "type": "tuple"
        },
        {
          "internalType": "uint8",
          "name": "v",
          "type": "uint8"
        },
        {
          "internalType": "bytes32",
          "name": "r",
          "type": "bytes32"
        },
        {
          "internalType": "bytes32",
          "name": "s",
          "type": "bytes32"
        }
      ],
      "name": "transferFromWithPermit",
      "outputs": [],
      "stateMutability": "nonpayable",
      "type": "function"
    },
    {
      "inputs": [
        {
          "internalType": "bytes",
          "name": "senderSign",
          "type": "bytes"
        },
        {
          "internalType": "bytes",
          "name": "receiverSign",
          "type": "bytes"
        },
        {
          "components": [
            {
              "internalType": "address",
              "name": "sender",
              "type": "address"
            },
            {
              "internalType": "address",
              "name": "receiver",
              "type": "address"
            },
            {
              "internalType": "uint256",
              "name": "amount",
              "type": "uint256"
            },
            {
              "internalType": "uint256",
              "name": "deadline",
              "type": "uint256"
            },
            {
              "internalType": "bytes32",
              "name": "nonce",
              "type": "bytes32"
            }
          ],
          "internalType": "struct HandshakeTokenTransfer.NativeTransfer",
          "name": "_transaction",
          "type": "tuple"
        }
      ],
      "name": "transferNative",
      "outputs": [],
      "stateMutability": "payable",
      "type": "function"
    },
    {
      "inputs": [
        {
          "internalType": "bytes",
          "name": "senderSign",
          "type": "bytes"
        },
        {
          "internalType": "bytes",
          "name": "receiverSign",
          "type": "bytes"
        },
        {
          "components": [
            {
              "internalType": "address",
              "name": "sender",
              "type": "address"
            },
            {
              "internalType": "address",
              "name": "receiver",
              "type": "address"
            },
            {
              "internalType": "address",
              "name": "tokenAddress",
              "type": "address"
            },
            {
              "internalType": "uint256",
              "name": "tokenId",
              "type": "uint256"
            },
            {
              "internalType": "uint256",
              "name": "deadline",
              "type": "uint256"
            },
            {
              "internalType": "bytes32",
              "name": "nonce",
              "type": "bytes32"
            }
          ],
          "internalType": "struct HandshakeTokenTransfer.NftTransfer",
          "name": "_transaction",
          "type": "tuple"
        }
      ],
      "name": "transferNft",
      "outputs": [],
      "stateMutability": "nonpayable",
      "type": "function"
    },
    {
      "inputs": [
        {
          "internalType": "bytes",
          "name": "senderSign",
          "type": "bytes"
        },
        {
          "internalType": "bytes",
          "name": "receiverSign",
          "type": "bytes"
        },
        {
          "components": [
            {
              "internalType": "address",
              "name": "sender",
              "type": "address"
            },
            {
              "internalType": "address",
              "name": "receiver",
              "type": "address"
            },
            {
              "internalType": "address",
              "name": "tokenAddress",
              "type": "address"
            },
            {
              "internalType": "uint256",
              "name": "amount",
              "type": "uint256"
            },
            {
              "internalType": "uint256",
              "name": "deadline",
              "type": "uint256"
            },
            {
              "internalType": "bytes32",
              "name": "nonce",
              "type": "bytes32"
            }
          ],
          "internalType": "struct HandshakeTokenTransfer.TokenTransfer",
          "name": "_transaction",
          "type": "tuple"
        }
      ],
      "name": "transferTokens",
      "outputs": [],
      "stateMutability": "nonpayable",
      "type": "function"
    }
  ],
  "bytecode": "0x6101606040523480156200001257600080fd5b506040518060400160405280601681526020017f48616e647368616b65546f6b656e5472616e73666572000000000000000000008152506040518060400160405280600181526020017f3100000000000000000000000000000000000000000000000000000000000000815250620000956000836200013560201b90919060201c565b6101208181525050620000b36001826200013560201b90919060201c565b6101408181525050818051906020012060e08181525050808051906020012061010081815250504660a08181525050620000f26200018d60201b60201c565b608081815250503073ffffffffffffffffffffffffffffffffffffffff1660c08173ffffffffffffffffffffffffffffffffffffffff16815250505050620007e5565b60006020835110156200015b576200015383620001ea60201b60201c565b905062000187565b826200016d836200025760201b60201c565b60000190816200017e9190620004db565b5060ff60001b90505b92915050565b60007f8b73c3c69bb8fe3d512ecc4cf759cc79239f7b179b0ffacaa9a75d522b39400f60e051610100514630604051602001620001cf95949392919062000633565b60405160208183030381529060405280519060200120905090565b600080829050601f815111156200023a57826040517f305a27a90000000000000000000000000000000000000000000000000000000081526004016200023191906200071f565b60405180910390fd5b805181620002489062000775565b60001c1760001b915050919050565b6000819050919050565b600081519050919050565b7f4e487b7100000000000000000000000000000000000000000000000000000000600052604160045260246000fd5b7f4e487b7100000000000000000000000000000000000000000000000000000000600052602260045260246000fd5b60006002820490506001821680620002e357607f821691505b602082108103620002f957620002f86200029b565b5b50919050565b60008190508160005260206000209050919050565b60006020601f8301049050919050565b600082821b905092915050565b600060088302620003637fffffffffffffffffffffffffffffffffffffffffffffffffffffffffffffffff8262000324565b6200036f868362000324565b95508019841693508086168417925050509392505050565b6000819050919050565b6000819050919050565b6000620003bc620003b6620003b08462000387565b62000391565b62000387565b9050919050565b6000819050919050565b620003d8836200039b565b620003f0620003e782620003c3565b84845462000331565b825550505050565b600090565b62000407620003f8565b62000414818484620003cd565b505050565b5b818110156200043c5762000430600082620003fd565b6001810190506200041a565b5050565b601f8211156200048b576200045581620002ff565b620004608462000314565b8101602085101562000470578190505b620004886200047f8562000314565b83018262000419565b50505b505050565b600082821c905092915050565b6000620004b06000198460080262000490565b1980831691505092915050565b6000620004cb83836200049d565b9150826002028217905092915050565b620004e68262000261565b67ffffffffffffffff8111156200050257620005016200026c565b5b6200050e8254620002ca565b6200051b82828562000440565b600060209050601f8311600181146200055357600084156200053e578287015190505b6200054a8582620004bd565b865550620005ba565b601f1984166200056386620002ff565b60005b828110156200058d5784890151825560018201915060208501945060208101905062000566565b86831015620005ad5784890151620005a9601f8916826200049d565b8355505b6001600288020188555050505b505050505050565b6000819050919050565b620005d781620005c2565b82525050565b620005e88162000387565b82525050565b600073ffffffffffffffffffffffffffffffffffffffff82169050919050565b60006200061b82620005ee565b9050919050565b6200062d816200060e565b82525050565b600060a0820190506200064a6000830188620005cc565b620006596020830187620005cc565b620006686040830186620005cc565b620006776060830185620005dd565b62000686608083018462000622565b9695505050505050565b600082825260208201905092915050565b60005b83811015620006c1578082015181840152602081019050620006a4565b60008484015250505050565b6000601f19601f8301169050919050565b6000620006eb8262000261565b620006f7818562000690565b935062000709818560208601620006a1565b6200071481620006cd565b840191505092915050565b600060208201905081810360008301526200073b8184620006de565b905092915050565b600081519050919050565b6000819050602082019050919050565b60006200076c8251620005c2565b80915050919050565b6000620007828262000743565b826200078e846200074e565b90506200079b816200075e565b92506020821015620007de57620007d97fffffffffffffffffffffffffffffffffffffffffffffffffffffffffffffffff8360200360080262000324565b831692505b5050919050565b60805160a05160c05160e051610100516101205161014051612f2e620008406000396000611921015260006118e601526000611d0101526000611ce001526000611957015260006119ad015260006119d60152612f2e6000f3fe6080604052600436106100915760003560e01c806384b0196e1161005957806384b0196e14610167578063b472003514610198578063e94a0102146101b4578063ea0ebebe146101f1578063f4fd18531461021c57610091565b80630f9ad30814610096578063211d130e146100bf57806324412bd7146100e8578063424f1173146101135780634e0794a91461013e575b600080fd5b3480156100a257600080fd5b506100bd60048036038101906100b8919061220b565b610247565b005b3480156100cb57600080fd5b506100e660048036038101906100e19190612389565b6104f7565b005b3480156100f457600080fd5b506100fd61097e565b60405161010a9190612424565b60405180910390f35b34801561011f57600080fd5b506101286109a2565b6040516101359190612424565b60405180910390f35b34801561014a57600080fd5b506101656004803603810190610160919061243f565b6109c6565b005b34801561017357600080fd5b5061017c610ee6565b60405161018f9796959493929190612661565b60405180910390f35b6101b260048036038101906101ad9190612771565b610f90565b005b3480156101c057600080fd5b506101db60048036038101906101d691906127fc565b61141a565b6040516101e89190612857565b60405180910390f35b3480156101fd57600080fd5b50610206611482565b6040516102139190612424565b60405180910390f35b34801561022857600080fd5b506102316114a6565b60405161023e9190612424565b60405180910390f35b83606001516000811161028f576040517f08c379a0000000000000000000000000000000000000000000000000000000008152600401610286906128be565b60405180910390fd5b8460000151600073ffffffffffffffffffffffffffffffffffffffff168173ffffffffffffffffffffffffffffffffffffffff1603610303576040517f08c379a00000000000000000000000000000000000000000000000000000000081526004016102fa9061292a565b60405180910390fd5b8560200151600073ffffffffffffffffffffffffffffffffffffffff168173ffffffffffffffffffffffffffffffffffffffff1603610377576040517f08c379a000000000000000000000000000000000000000000000000000000000815260040161036e9061292a565b60405180910390fd5b86600001518760a0015160001515600260008473ffffffffffffffffffffffffffffffffffffffff1673ffffffffffffffffffffffffffffffffffffffff168152602001908152602001600020600083815260200190815260200160002060009054906101000a900460ff16151514610425576040517f08c379a000000000000000000000000000000000000000000000000000000000815260040161041c90612996565b60405180910390fd5b6104308c8c8b6114ca565b60001515600260008b6000015173ffffffffffffffffffffffffffffffffffffffff1673ffffffffffffffffffffffffffffffffffffffff16815260200190815260200160002060008b60a00151815260200190815260200160002060009054906101000a900460ff161515146104dc576040517f08c379a00000000000000000000000000000000000000000000000000000000081526004016104d390612996565b60405180910390fd5b6104e9898b8a8a8a6116c1565b505050505050505050505050565b8060000151600073ffffffffffffffffffffffffffffffffffffffff168173ffffffffffffffffffffffffffffffffffffffff160361056b576040517f08c379a00000000000000000000000000000000000000000000000000000000081526004016105629061292a565b60405180910390fd5b8160200151600073ffffffffffffffffffffffffffffffffffffffff168173ffffffffffffffffffffffffffffffffffffffff16036105df576040517f08c379a00000000000000000000000000000000000000000000000000000000081526004016105d69061292a565b60405180910390fd5b82600001518360a0015160001515600260008473ffffffffffffffffffffffffffffffffffffffff1673ffffffffffffffffffffffffffffffffffffffff168152602001908152602001600020600083815260200190815260200160002060009054906101000a900460ff1615151461068d576040517f08c379a000000000000000000000000000000000000000000000000000000000815260040161068490612996565b60405180910390fd5b60007f34048ff83bd0ad59b21bdb4cb24f76a18bcae671a1b94d6a9b32f344c078e42186600001518760200151886040015189606001518a608001518b60a001516040516020016106e497969594939291906129b6565b604051602081830303815290604052805190602001209050600061070782611897565b9050866000015173ffffffffffffffffffffffffffffffffffffffff1661072e828b6118b1565b73ffffffffffffffffffffffffffffffffffffffff1614610784576040517f08c379a000000000000000000000000000000000000000000000000000000000815260040161077b90612a97565b60405180910390fd5b60007faaf8784bc1dc1b204328b6dd4d730ee55b474cd78ac70bec92594b5bb1f9fe2f886000015189602001518a604001518b606001518c608001518d60a001516040516020016107db97969594939291906129b6565b60405160208183030381529060405280519060200120905060006107fe82611897565b9050886020015173ffffffffffffffffffffffffffffffffffffffff16610825828c6118b1565b73ffffffffffffffffffffffffffffffffffffffff161461087b576040517f08c379a000000000000000000000000000000000000000000000000000000000815260040161087290612b29565b60405180910390fd5b6001600260008b6000015173ffffffffffffffffffffffffffffffffffffffff1673ffffffffffffffffffffffffffffffffffffffff16815260200190815260200160002060008b60a00151815260200190815260200160002060006101000a81548160ff0219169083151502179055506000896040015190508073ffffffffffffffffffffffffffffffffffffffff166323b872dd8b600001518c602001518d606001516040518463ffffffff1660e01b815260040161093e93929190612b49565b600060405180830381600087803b15801561095857600080fd5b505af115801561096c573d6000803e3d6000fd5b50505050505050505050505050505050565b7f0a7b14c0bd942f7286849a79a5ee80efe1b6b2b0348cec7261d68e6a910aaaf181565b7f242c1174301e5112b8ef3b66464162ac9baae53e54f734a182cb7661cfb1887f81565b806060015160008111610a0e576040517f08c379a0000000000000000000000000000000000000000000000000000000008152600401610a05906128be565b60405180910390fd5b8160000151600073ffffffffffffffffffffffffffffffffffffffff168173ffffffffffffffffffffffffffffffffffffffff1603610a82576040517f08c379a0000000000000000000000000000000000000000000000000000000008152600401610a799061292a565b60405180910390fd5b8260200151600073ffffffffffffffffffffffffffffffffffffffff168173ffffffffffffffffffffffffffffffffffffffff1603610af6576040517f08c379a0000000000000000000000000000000000000000000000000000000008152600401610aed9061292a565b60405180910390fd5b83600001518460a0015160001515600260008473ffffffffffffffffffffffffffffffffffffffff1673ffffffffffffffffffffffffffffffffffffffff168152602001908152602001600020600083815260200190815260200160002060009054906101000a900460ff16151514610ba4576040517f08c379a0000000000000000000000000000000000000000000000000000000008152600401610b9b90612996565b60405180910390fd5b60007f0a7b14c0bd942f7286849a79a5ee80efe1b6b2b0348cec7261d68e6a910aaaf18760000151886020015189604001518a606001518b608001518c60a00151604051602001610bfb97969594939291906129b6565b6040516020818303038152906040528051906020012090506000610c1e82611897565b9050876000015173ffffffffffffffffffffffffffffffffffffffff16610c45828c6118b1565b73ffffffffffffffffffffffffffffffffffffffff1614610c9b576040517f08c379a0000000000000000000000000000000000000000000000000000000008152600401610c9290612a97565b60405180910390fd5b60007f242c1174301e5112b8ef3b66464162ac9baae53e54f734a182cb7661cfb1887f89600001518a602001518b604001518c606001518d608001518e60a00151604051602001610cf297969594939291906129b6565b6040516020818303038152906040528051906020012090506000610d1582611897565b9050896020015173ffffffffffffffffffffffffffffffffffffffff16610d3c828d6118b1565b73ffffffffffffffffffffffffffffffffffffffff1614610d92576040517f08c379a0000000000000000000000000000000000000000000000000000000008152600401610d8990612b29565b60405180910390fd5b6001600260008c6000015173ffffffffffffffffffffffffffffffffffffffff1673ffffffffffffffffffffffffffffffffffffffff16815260200190815260200160002060008c60a00151815260200190815260200160002060006101000a81548160ff02191690831515021790555060008a6040015190508073ffffffffffffffffffffffffffffffffffffffff166323b872dd8c600001518d602001518e606001516040518463ffffffff1660e01b8152600401610e5593929190612b49565b6020604051808303816000875af1158015610e74573d6000803e3d6000fd5b505050506040513d601f19601f82011682018060405250810190610e989190612bac565b610ed7576040517f08c379a0000000000000000000000000000000000000000000000000000000008152600401610ece90612c25565b60405180910390fd5b50505050505050505050505050565b600060608060008060006060610efa6118dd565b610f02611918565b46306000801b600067ffffffffffffffff811115610f2357610f22611f38565b5b604051908082528060200260200182016040528015610f515781602001602082028036833780820191505090505b507f0f00000000000000000000000000000000000000000000000000000000000000959493929190965096509650965096509650965090919293949596565b806040015160008111610fd8576040517f08c379a0000000000000000000000000000000000000000000000000000000008152600401610fcf906128be565b60405180910390fd5b8160000151600073ffffffffffffffffffffffffffffffffffffffff168173ffffffffffffffffffffffffffffffffffffffff160361104c576040517f08c379a00000000000000000000000000000000000000000000000000000000081526004016110439061292a565b60405180910390fd5b8260200151600073ffffffffffffffffffffffffffffffffffffffff168173ffffffffffffffffffffffffffffffffffffffff16036110c0576040517f08c379a00000000000000000000000000000000000000000000000000000000081526004016110b79061292a565b60405180910390fd5b8360000151846080015160001515600260008473ffffffffffffffffffffffffffffffffffffffff1673ffffffffffffffffffffffffffffffffffffffff168152602001908152602001600020600083815260200190815260200160002060009054906101000a900460ff1615151461116e576040517f08c379a000000000000000000000000000000000000000000000000000000000815260040161116590612996565b60405180910390fd5b60007f0a7b14c0bd942f7286849a79a5ee80efe1b6b2b0348cec7261d68e6a910aaaf18760000151886020015189604001518a606001518b608001516040516020016111bf96959493929190612c45565b60405160208183030381529060405280519060200120905060006111e282611897565b9050876000015173ffffffffffffffffffffffffffffffffffffffff16611209828c6118b1565b73ffffffffffffffffffffffffffffffffffffffff161461125f576040517f08c379a000000000000000000000000000000000000000000000000000000000815260040161125690612a97565b60405180910390fd5b60007f242c1174301e5112b8ef3b66464162ac9baae53e54f734a182cb7661cfb1887f89600001518a602001518b604001518c606001518d608001516040516020016112b096959493929190612c45565b60405160208183030381529060405280519060200120905060006112d382611897565b9050896020015173ffffffffffffffffffffffffffffffffffffffff166112fa828d6118b1565b73ffffffffffffffffffffffffffffffffffffffff1614611350576040517f08c379a000000000000000000000000000000000000000000000000000000000815260040161134790612b29565b60405180910390fd5b6001600260008c6000015173ffffffffffffffffffffffffffffffffffffffff1673ffffffffffffffffffffffffffffffffffffffff16815260200190815260200160002060008c60800151815260200190815260200160002060006101000a81548160ff021916908315150217905550896020015173ffffffffffffffffffffffffffffffffffffffff166108fc349081150290604051600060405180830381858888f1935050505015801561140b573d6000803e3d6000fd5b50505050505050505050505050565b6000600260008473ffffffffffffffffffffffffffffffffffffffff1673ffffffffffffffffffffffffffffffffffffffff168152602001908152602001600020600083815260200190815260200160002060009054906101000a900460ff16905092915050565b7f34048ff83bd0ad59b21bdb4cb24f76a18bcae671a1b94d6a9b32f344c078e42181565b7faaf8784bc1dc1b204328b6dd4d730ee55b474cd78ac70bec92594b5bb1f9fe2f81565b60007f0a7b14c0bd942f7286849a79a5ee80efe1b6b2b0348cec7261d68e6a910aaaf1826000015183602001518460400151856060015186608001518760a0015160405160200161152197969594939291906129b6565b604051602081830303815290604052805190602001209050600061154482611897565b9050826000015173ffffffffffffffffffffffffffffffffffffffff1661156b82876118b1565b73ffffffffffffffffffffffffffffffffffffffff16146115c1576040517f08c379a00000000000000000000000000000000000000000000000000000000081526004016115b890612d18565b60405180910390fd5b60007f242c1174301e5112b8ef3b66464162ac9baae53e54f734a182cb7661cfb1887f846000015185602001518660400151876060015188608001518960a0015160405160200161161897969594939291906129b6565b604051602081830303815290604052805190602001209050600061163b82611897565b9050846020015173ffffffffffffffffffffffffffffffffffffffff1661166282886118b1565b73ffffffffffffffffffffffffffffffffffffffff16146116b8576040517f08c379a00000000000000000000000000000000000000000000000000000000081526004016116af90612b29565b60405180910390fd5b50505050505050565b6000856040015190506000866040015190508173ffffffffffffffffffffffffffffffffffffffff1663d505accf8860000151308a606001518a8a8a8a6040518863ffffffff1660e01b81526004016117209796959493929190612d47565b600060405180830381600087803b15801561173a57600080fd5b505af115801561174e573d6000803e3d6000fd5b505050508073ffffffffffffffffffffffffffffffffffffffff166323b872dd886000015189602001518a606001516040518463ffffffff1660e01b815260040161179b93929190612b49565b6020604051808303816000875af11580156117ba573d6000803e3d6000fd5b505050506040513d601f19601f820116820180604052508101906117de9190612bac565b61181d576040517f08c379a000000000000000000000000000000000000000000000000000000000815260040161181490612c25565b60405180910390fd5b600160026000896000015173ffffffffffffffffffffffffffffffffffffffff1673ffffffffffffffffffffffffffffffffffffffff16815260200190815260200160002060008960a00151815260200190815260200160002060006101000a81548160ff02191690831515021790555050505050505050565b60006118aa6118a4611953565b83611a0a565b9050919050565b6000806000806118c18686611a4b565b9250925092506118d18282611aa7565b82935050505092915050565b606061191360007f0000000000000000000000000000000000000000000000000000000000000000611c0b90919063ffffffff16565b905090565b606061194e60017f0000000000000000000000000000000000000000000000000000000000000000611c0b90919063ffffffff16565b905090565b60007f000000000000000000000000000000000000000000000000000000000000000073ffffffffffffffffffffffffffffffffffffffff163073ffffffffffffffffffffffffffffffffffffffff161480156119cf57507f000000000000000000000000000000000000000000000000000000000000000046145b156119fc577f00000000000000000000000000000000000000000000000000000000000000009050611a07565b611a04611cbb565b90505b90565b60006040517f190100000000000000000000000000000000000000000000000000000000000081528360028201528260228201526042812091505092915050565b60008060006041845103611a905760008060006020870151925060408701519150606087015160001a9050611a8288828585611d51565b955095509550505050611aa0565b60006002855160001b9250925092505b9250925092565b60006003811115611abb57611aba612db6565b5b826003811115611ace57611acd612db6565b5b0315611c075760016003811115611ae857611ae7612db6565b5b826003811115611afb57611afa612db6565b5b03611b32576040517ff645eedf00000000000000000000000000000000000000000000000000000000815260040160405180910390fd5b60026003811115611b4657611b45612db6565b5b826003811115611b5957611b58612db6565b5b03611b9e578060001c6040517ffce698f7000000000000000000000000000000000000000000000000000000008152600401611b959190612de5565b60405180910390fd5b600380811115611bb157611bb0612db6565b5b826003811115611bc457611bc3612db6565b5b03611c0657806040517fd78bce0c000000000000000000000000000000000000000000000000000000008152600401611bfd9190612424565b60405180910390fd5b5b5050565b606060ff60001b8314611c2857611c2183611e45565b9050611cb5565b818054611c3490612e2f565b80601f0160208091040260200160405190810160405280929190818152602001828054611c6090612e2f565b8015611cad5780601f10611c8257610100808354040283529160200191611cad565b820191906000526020600020905b815481529060010190602001808311611c9057829003601f168201915b505050505090505b92915050565b60007f8b73c3c69bb8fe3d512ecc4cf759cc79239f7b179b0ffacaa9a75d522b39400f7f00000000000000000000000000000000000000000000000000000000000000007f00000000000000000000000000000000000000000000000000000000000000004630604051602001611d36959493929190612e60565b60405160208183030381529060405280519060200120905090565b60008060007f7fffffffffffffffffffffffffffffff5d576e7357a4501ddfe92f46681b20a08460001c1115611d91576000600385925092509250611e3b565b600060018888888860405160008152602001604052604051611db69493929190612eb3565b6020604051602081039080840390855afa158015611dd8573d6000803e3d6000fd5b505050602060405103519050600073ffffffffffffffffffffffffffffffffffffffff168173ffffffffffffffffffffffffffffffffffffffff1603611e2c57600060016000801b93509350935050611e3b565b8060008060001b935093509350505b9450945094915050565b60606000611e5283611eb9565b90506000602067ffffffffffffffff811115611e7157611e70611f38565b5b6040519080825280601f01601f191660200182016040528015611ea35781602001600182028036833780820191505090505b5090508181528360208201528092505050919050565b60008060ff8360001c169050601f811115611f00576040517fb3512b0c00000000000000000000000000000000000000000000000000000000815260040160405180910390fd5b80915050919050565b6000604051905090565b600080fd5b600080fd5b600080fd5b600080fd5b6000601f19601f8301169050919050565b7f4e487b7100000000000000000000000000000000000000000000000000000000600052604160045260246000fd5b611f7082611f27565b810181811067ffffffffffffffff82111715611f8f57611f8e611f38565b5b80604052505050565b6000611fa2611f09565b9050611fae8282611f67565b919050565b600067ffffffffffffffff821115611fce57611fcd611f38565b5b611fd782611f27565b9050602081019050919050565b82818337600083830152505050565b600061200661200184611fb3565b611f98565b90508281526020810184848401111561202257612021611f22565b5b61202d848285611fe4565b509392505050565b600082601f83011261204a57612049611f1d565b5b813561205a848260208601611ff3565b91505092915050565b6000819050919050565b61207681612063565b811461208157600080fd5b50565b6000813590506120938161206d565b92915050565b600080fd5b600073ffffffffffffffffffffffffffffffffffffffff82169050919050565b60006120c98261209e565b9050919050565b6120d9816120be565b81146120e457600080fd5b50565b6000813590506120f6816120d0565b92915050565b6000819050919050565b61210f816120fc565b811461211a57600080fd5b50565b60008135905061212c81612106565b92915050565b600060c0828403121561214857612147612099565b5b61215260c0611f98565b90506000612162848285016120e7565b6000830152506020612176848285016120e7565b602083015250604061218a848285016120e7565b604083015250606061219e84828501612084565b60608301525060806121b284828501612084565b60808301525060a06121c68482850161211d565b60a08301525092915050565b600060ff82169050919050565b6121e8816121d2565b81146121f357600080fd5b50565b600081359050612205816121df565b92915050565b6000806000806000806000610180888a03121561222b5761222a611f13565b5b600088013567ffffffffffffffff81111561224957612248611f18565b5b6122558a828b01612035565b975050602088013567ffffffffffffffff81111561227657612275611f18565b5b6122828a828b01612035565b96505060406122938a828b01612084565b95505060606122a48a828b01612132565b9450506101206122b68a828b016121f6565b9350506101406122c88a828b0161211d565b9250506101606122da8a828b0161211d565b91505092959891949750929550565b600060c082840312156122ff576122fe612099565b5b61230960c0611f98565b90506000612319848285016120e7565b600083015250602061232d848285016120e7565b6020830152506040612341848285016120e7565b604083015250606061235584828501612084565b606083015250608061236984828501612084565b60808301525060a061237d8482850161211d565b60a08301525092915050565b600080600061010084860312156123a3576123a2611f13565b5b600084013567ffffffffffffffff8111156123c1576123c0611f18565b5b6123cd86828701612035565b935050602084013567ffffffffffffffff8111156123ee576123ed611f18565b5b6123fa86828701612035565b925050604061240b868287016122e9565b9150509250925092565b61241e816120fc565b82525050565b60006020820190506124396000830184612415565b92915050565b6000806000610100848603121561245957612458611f13565b5b600084013567ffffffffffffffff81111561247757612476611f18565b5b61248386828701612035565b935050602084013567ffffffffffffffff8111156124a4576124a3611f18565b5b6124b086828701612035565b92505060406124c186828701612132565b9150509250925092565b60007fff0000000000000000000000000000000000000000000000000000000000000082169050919050565b612500816124cb565b82525050565b600081519050919050565b600082825260208201905092915050565b60005b83811015612540578082015181840152602081019050612525565b60008484015250505050565b600061255782612506565b6125618185612511565b9350612571818560208601612522565b61257a81611f27565b840191505092915050565b61258e81612063565b82525050565b61259d816120be565b82525050565b600081519050919050565b600082825260208201905092915050565b6000819050602082019050919050565b6125d881612063565b82525050565b60006125ea83836125cf565b60208301905092915050565b6000602082019050919050565b600061260e826125a3565b61261881856125ae565b9350612623836125bf565b8060005b8381101561265457815161263b88826125de565b9750612646836125f6565b925050600181019050612627565b5085935050505092915050565b600060e082019050612676600083018a6124f7565b8181036020830152612688818961254c565b9050818103604083015261269c818861254c565b90506126ab6060830187612585565b6126b86080830186612594565b6126c560a0830185612415565b81810360c08301526126d78184612603565b905098975050505050505050565b600060a082840312156126fb576126fa612099565b5b61270560a0611f98565b90506000612715848285016120e7565b6000830152506020612729848285016120e7565b602083015250604061273d84828501612084565b604083015250606061275184828501612084565b60608301525060806127658482850161211d565b60808301525092915050565b600080600060e0848603121561278a57612789611f13565b5b600084013567ffffffffffffffff8111156127a8576127a7611f18565b5b6127b486828701612035565b935050602084013567ffffffffffffffff8111156127d5576127d4611f18565b5b6127e186828701612035565b92505060406127f2868287016126e5565b9150509250925092565b6000806040838503121561281357612812611f13565b5b6000612821858286016120e7565b92505060206128328582860161211d565b9150509250929050565b60008115159050919050565b6128518161283c565b82525050565b600060208201905061286c6000830184612848565b92915050565b7f416d6f756e74206d7573742062652067726561746572207468616e207a65726f600082015250565b60006128a8602083612511565b91506128b382612872565b602082019050919050565b600060208201905081810360008301526128d78161289b565b9050919050565b7f496e76616c696420616464726573733a207a65726f2061646472657373000000600082015250565b6000612914601d83612511565b915061291f826128de565b602082019050919050565b6000602082019050818103600083015261294381612907565b9050919050565b7f4e6f6e636520616c726561647920757365640000000000000000000000000000600082015250565b6000612980601283612511565b915061298b8261294a565b602082019050919050565b600060208201905081810360008301526129af81612973565b9050919050565b600060e0820190506129cb600083018a612415565b6129d86020830189612594565b6129e56040830188612594565b6129f26060830187612594565b6129ff6080830186612585565b612a0c60a0830185612585565b612a1960c0830184612415565b98975050505050505050565b7f48616e647368616b653a20496e76616c6964207369676e6174757265206f662060008201527f73656e6465720000000000000000000000000000000000000000000000000000602082015250565b6000612a81602683612511565b9150612a8c82612a25565b604082019050919050565b60006020820190508181036000830152612ab081612a74565b9050919050565b7f48616e647368616b653a20496e76616c6964207369676e6174757265206f662060008201527f7265636569766572000000000000000000000000000000000000000000000000602082015250565b6000612b13602883612511565b9150612b1e82612ab7565b604082019050919050565b60006020820190508181036000830152612b4281612b06565b9050919050565b6000606082019050612b5e6000830186612594565b612b6b6020830185612594565b612b786040830184612585565b949350505050565b612b898161283c565b8114612b9457600080fd5b50565b600081519050612ba681612b80565b92915050565b600060208284031215612bc257612bc1611f13565b5b6000612bd084828501612b97565b91505092915050565b7f546f6b656e207472616e73666572206661696c65640000000000000000000000600082015250565b6000612c0f601583612511565b9150612c1a82612bd9565b602082019050919050565b60006020820190508181036000830152612c3e81612c02565b9050919050565b600060c082019050612c5a6000830189612415565b612c676020830188612594565b612c746040830187612594565b612c816060830186612585565b612c8e6080830185612585565b612c9b60a0830184612415565b979650505050505050565b7f48616e64687368616b653a20496e76616c6964207369676e6174757265206f6660008201527f2073656e64657200000000000000000000000000000000000000000000000000602082015250565b6000612d02602783612511565b9150612d0d82612ca6565b604082019050919050565b60006020820190508181036000830152612d3181612cf5565b9050919050565b612d41816121d2565b82525050565b600060e082019050612d5c600083018a612594565b612d696020830189612594565b612d766040830188612585565b612d836060830187612585565b612d906080830186612d38565b612d9d60a0830185612415565b612daa60c0830184612415565b98975050505050505050565b7f4e487b7100000000000000000000000000000000000000000000000000000000600052602160045260246000fd5b6000602082019050612dfa6000830184612585565b92915050565b7f4e487b7100000000000000000000000000000000000000000000000000000000600052602260045260246000fd5b60006002820490506001821680612e4757607f821691505b602082108103612e5a57612e59612e00565b5b50919050565b600060a082019050612e756000830188612415565b612e826020830187612415565b612e8f6040830186612415565b612e9c6060830185612585565b612ea96080830184612594565b9695505050505050565b6000608082019050612ec86000830187612415565b612ed56020830186612d38565b612ee26040830185612415565b612eef6060830184612415565b9594505050505056fea264697066735822122016d29aede8177fe345632641604ffcf964c3eff0a21c3ea3e22492977fac8e7564736f6c63430008180033",
  "linkReferences": {},
  "deployedLinkReferences": {}
}